:100000000C9429240C945A240C945A240C945A24A9
:100010000C945A240C945A240C945A240C945A2468
:100020000C945A240C945A240C945A240C945A2458
:100030000C945A240C9412F40C945A240C945A24C0
:100040000C945A240C948A460C945A240C945A24E6
:100050000C945A240C945A240C94533F0C9440F75B
:100060000C945A240C9450700C945A240C945A24D6
:100070000C945A240C945A240C945A240C945A2408
:100080000C945A240C945A240C945A240C945A24F8
:100090000C945A240C945A240C945A240C945A24E8
:1000A0000C945A240C945A240C945A240C945A24D8
:1000B0000C945A240C945A240C945A240C945A24C8
:1000C0000C945A240C945A240C945A240C945A24B8
:1000D0000C945A240C945A240C945A240C945A24A8
:1000E0000C945A24084AD73B3BCE016E84BCBFFD1A
:1000F000C12F3D6C74319ABD56833DDA3D00C77FF8
:1001000011BED9E4BB4C3E916BAAAABE0000008090
:100110003F05A84CCDB2D44EB93836A9020C50B91F
:10012000918688083CA6AAAA2ABE000000803F004B
:100130000D941F1F0D942C030D94351F0D94D61E86
:100140000D94FF010D94E2060D940E0A0D94A1008A
:100150000D942A1F0D9433090D94E01E0D940F1475
:100160000D948B1B0D9462040D9406080D94C50A22
:100170000D94590B0D948F050D94A91B4E414E49BA
:100180004E495459494E46CDCCCC3D0AD7233C1755
:10019000B7D13877CC2B329595E6241FB14F0A00A2
:1001A0000020410000C84200401C4620BCBE4CCA92
:1001B0001B0E5AAEC59D742044002049002020200B
:1001C0004D333031205000504944207365747469B8
:1001D0006E67733A00205A0020590020204D3230BB
:1001E00036205800486F6D65206F66667365742011
:1001F000286D6D293A00204500205A002058002023
:10020000420020540020204D3230352053004164FC
:1002100076616E636564207661726961626C657394
:100220003A20533D4D696E20666565647261746560
:1002300020286D6D2F73292C20543D4D696E20743C
:10024000726176656C2066656564726174652028EC
:100250006D6D2F73292C20423D6D696E696D756D32
:10026000207365676D656E742074696D6520286DF7
:1002700073292C20583D6D6178696D756D20585932
:10028000206A65726B20286D6D2F73292C20205AEF
:100290003D6D6178696D756D205A206A65726B20BD
:1002A000286D6D2F73292C2020453D6D6178696D77
:1002B000756D2045206A65726B20286D6D2F73293E
:1002C0000020540020204D3230342053004163631D
:1002D000656C65726174696F6E3A20533D6163634A
:1002E000656C65726174696F6E2C20543D72657423
:1002F0007261637420616363656C65726174696FB8
:100300006E00204500205A0020590020204D323038
:10031000312058004D6178696D756D2041636365CA
:100320006C65726174696F6E20286D6D2F73322950
:100330003A00204500205A0020590020204D32303C
:10034000332058004D6178696D756D206665656470
:10035000726174657320286D6D2F73293A002045F2
:1003600000205A0020590020204D393220580053D7
:10037000746570732070657220756E69743A0048F8
:10038000617264636F6465642044656661756C7452
:100390002053657474696E6773204C6F6164656483
:1003A000004D383420582059205A20450025692016
:1003B000686F757273202569206D696E7574657339
:1003C00000446F6E65207072696E74696E67206696
:1003D000696C650053544F505045442E20005072B4
:1003E000696E7465722073746F70706564206475D3
:1003F0006520746F206572726F72732E2046697863
:1004000020746865206572726F7220616E64207559
:100410007365204D39393920746F207265737461AA
:1004200072742E202854656D7065726174757265E2
:100430002069732072657365742E2053657420697A
:100440007420616674657220726573746172746978
:100450006E6729004E6F204C696E65204E756D6287
:100460006572207769746820636865636B73756D66
:100470002C204C617374204C696E653A20004E6FDD
:1004800020436865636B73756D2077697468206CB1
:10049000696E65206E756D6265722C204C61737497
:1004A000204C696E653A2000636865636B73756DF7
:1004B000206D69736D617463682C204C61737420C6
:1004C0004C696E653A20004C696E65204E756D6210
:1004D0006572206973206E6F74204C617374204CB8
:1004E000696E65204E756D6265722B312C204C61F2
:1004F0007374204C696E653A20004D313130002F05
:10050000005344207072696E74696E67206279745A
:100510006520004E6F74205344207072696E7469B8
:100520006E67002E0044656C6574696F6E206661AD
:10053000696C65642C2046696C653A200046696CDC
:10054000652064656C657465643A002E006F7065A3
:100550006E206661696C65642C2046696C653A2082
:1005600000504944204175746F74756E652066694A
:100570006E69736865642120507574207468652005
:100580006C617374204B702C204B6920616E642069
:100590004B6420636F6E7374616E74732066726F48
:1005A0006D2061626F766520696E746F20436F6E97
:1005B00066696775726174696F6E2E680050494490
:1005C000204175746F74756E65206661696C656431
:1005D000212074696D656F75740020403A006F6B5F
:1005E00020543A006F6B20423A0050494420417534
:1005F000746F74756E65206661696C656421205442
:10060000656D706572617475726520746F6F2068B6
:1006100069676800204B643A2000204B693A20004B
:10062000204B703A200020436C6173736963205043
:10063000494420002054753A2000204B753A200090
:10064000206D61783A2000206D696E3A20002064A8
:100650003A200020626961733A20002200556E6BD7
:100660006E6F776E20636F6D6D616E643A2022004D
:100670004368616E67652066696C616D656E7400C4
:100680005A204F6666736574203A20007A5F6D6168
:10069000783A20007A5F6D696E3A20005A204F66E2
:1006A00066736574005A204F6666736574206F6BBD
:1006B000006C636420636F6E747261737420766182
:1006C0006C75653A20007A5F6D696E3A2000795F3B
:1006D0006D696E3A2000785F6D696E3A2000205A8D
:1006E0003A0020593A0020436F756E7420583A2022
:1006F0000020453A00205A3A0020593A00583A0062
:100700004649524D574152455F4E414D453A4D6124
:10071000726C696E2056312E302E323B205370722F
:10072000696E7465722F6772626C206D6173687593
:100730007020666F722067656E36204649524D57AD
:100740004152455F55524C3A68747470733A2F2F7A
:100750006769746875622E636F6D2F4D61726C6985
:100760006E4669726D776172652F4D61726C696E4C
:100770002050524F544F434F4C5F56455253494FB0
:100780004E3A312E30204D414348494E455F545931
:1007900050453A534D492054617A2045585452559A
:1007A0004445525F434F554E543A312055554944C4
:1007B0003A30303030303030302D303030302D3035
:1007C0003030302D303030302D303030303030302F
:1007D00030303030300A00534D492054617A204F78
:1007E00066662E00534D492054617A20726561641B
:1007F000792E0042656420646F6E652E0020423AB7
:100800000020453A00543A0042656420486561740E
:10081000696E672E0020573A0020453A00543A008E
:1008200048656174696E6720646F6E652E00486567
:100830006174696E672E2E2E002042403A002040DF
:100840003A00202F003A00205400202F0020423A86
:1008500000202F006F6B20543A002569206D696ECF
:100860002C2025692073656300456E642066696CE1
:1008700065206C69737400426567696E2066696CF7
:1008800065206C697374004E6F206D6F76652E0065
:10089000534D492054617A2072656164792E00526B
:1008A0006573756D696E67207072696E740057614B
:1008B000697420666F7220757365722E2E2E005338
:1008C0006C6565702E2E2E00526573656E643A203D
:1008D000006F6B004B494C4C45442E200050726910
:1008E0006E7465722068616C7465642E206B696C2F
:1008F0006C28292063616C6C6564210053544F504F
:100900005045442E20005072696E746572207374D5
:100910006F707065642064756520746F20657272F5
:100920006F72732E20466978207468652065727234
:100930006F7220616E6420757365204D39393920DE
:10094000746F20726573746172742E202854656D03
:100950007065726174757265206973207265736564
:10096000742E20536574206974206166746572204A
:1009700072657374617274696E6729000000954333
:100980000080894300007A4300000000000000005E
:100990000000000000000000000000000000000057
:1009A0000000A0400000A0400000804000009543EF
:1009B0000080894300007A43FFFFFF2200656E71CB
:1009C0007565696E672022002200656E7175656924
:1009D0006E672022007C3C3E5E2B3D3F2F5B5D3BE3
:1009E0002C2A225C0020746F6F206C6F6E6720656C
:1009F0007874727573696F6E2070726576656E7447
:100A000065640020636F6C64206578747275736927
:100A10006F6E2070726576656E7465640024F4D420
:100A20003050C38E20C2A24017828B7011127A916F
:100A30000D816CD90AA861E108C758660761514366
:100A4000061E4B5D05C145A7041A411104093D98D6
:100A500003713931034036DB0265339102D43054DF
:100A600002802E1D02632CEE01752AC501B028A05C
:100A700001102781018F2564012B244B01E02234D2
:100A800001AC211F018D200D01801FFC00841EED93
:100A900000971DDF00B81CD200E61BC600201BBC5F
:100AA00000641AB200B219A8000A19A0006A1899C5
:100AB00000D117910040178B00B516840031167EC7
:100AC00000B31579003A157300C7146F0058146A03
:100AD00000EE1366008813630025135E00C7125BE7
:100AE000006C12570015125400C111510070114FC3
:100AF0000021114B00D61049008D104700461044CC
:100B00000002104200C00F4000800F3E00420F3C28
:100B100000060F3B00CB0E3800930E37005C0E35FD
:100B200000270E3400F30D3200C10D3100900D305E
:100B300000600D2E00320D2D00050D2C00D90C2B60
:100B400000AE0C2900850C29005C0C2700350C2711
:100B5000000E0C2600E80B2400C40B2400A00B237D
:100B6000007D0B23005A0B2100390B2100180B20AC
:100B700000F80A1F00D90A1E00BB0A1E009D0A1DAC
:100B800000800A1D00630A1C00470A1B002C0A1B78
:100B900000110A1A00F7091A00DD091900C4091921
:100BA00000AB091900920917007B091800630917A7
:100BB000004C09160036091600200916000A09150E
:100BC00000F5081500E0081400CC081400B808145B
:100BD00000A4081400900813007D0812006B08138D
:100BE00000580812004608120034081100230811AA
:100BF000001208110001081100F0071000E00710B2
:100C000000D0071000C0071000B0070F00A10710A8
:100C10000091070E0083070F0074070F0065070E91
:100C20000057070E0049070E003B070D002E070E68
:100C30000020070D0013070D0006070D00F9060C34
:100C400000ED060D00E0060C00D4060C00C8060CF2
:100C500000BC060C00B0060C00A4060B0099060CA4
:100C6000008D060B0082060B0077060B006C060B4E
:100C70000061060A0057060B004C060A0042060AED
:100C80000038060A002E060A0024060A001A060A80
:100C9000001006090007060A00FD050900F4050911
:100CA00000EB050900E2050900D9050900D0050996
:100CB00000C7050900BE050900B5050800AD050817
:100CC00000A50509009C050800940508008C05088E
:100CD00000840508007C050800740508006C050701
:100CE00000650508005D050700560508004E05076C
:100CF00000470507004005080038050700310507D3
:100D0000002A050700230507001C05060016050735
:100D1000000F0507000805060002050700FB040692
:100D200000F5040700EE040600E8040600E20407EC
:100D300000DB040600D5040600CF040600C9040643
:100D400000C3040600BD040600B7040600B1040594
:100D500000AC040600A6040600A00405009B0406DF
:100D60000095040500900406008A0405008504052A
:100D700000800406007A040500750405007004056F
:100D8000006B04050066040500610405005C0405B1
:100D90000057040500520405004D040500480405F1
:100DA00000430405003E0404003A04050035040530
:100DB00000300404002C040500270404002304056B
:100DC000001E0404001A04040016040500110404A3
:100DD000000D0404000904050004040400000404D8
:100DE00000FC030400F8030400F4030400F003040F
:100DF00000EC030400E8030400E4030400E003043F
:100E000000DC030400D8030400D4030400D003046E
:100E100000CC030400C8030300C503030024F4044A
:100E2000D9201BC40C5C0E9804C4095F02650771CD
:100E300001F405F900FB04B30048048700C103690D
:100E4000005803550003034500BE023A00840231F6
:100E50000053022A002902250004022000E4011C9C
:100E600000C8011900AF0117009801140084011394
:100E700000710110006101100051010E0043010DCD
:100E80000036010B002B010B0020010B001501099E
:100E9000000C01090003010800FB000800F3000832
:100EA00000EB000700E4000600DE000600D80006A4
:100EB00000D2000600CC000500C7000500C20005F6
:100EC00000BD000400B9000400B5000400B1000436
:100ED00000AD000400A9000400A5000300A2000367
:100EE000009F0004009B000300980003009500028F
:100EF0000093000300900003008D0002008B0003AC
:100F000000880002008600020084000300810002C5
:100F1000007F0002007D0002007B000200790002D9
:100F200000770001007600020074000200720001E8
:100F300000710002006F0002006D0001006C0002F1
:100F4000006A0001006900020067000100660001FC
:100F50000065000100640002006200010061000100
:100F600000600001005F0002005D0001005C000104
:100F7000005B0001005A0001005900010058000107
:100F80000057000100560001005500010054000107
:100F90000053000000530001005200010051000105
:100FA00000500001004F0001004E0000004E000103
:100FB000004D0001004C0001004B0000004B0001FF
:100FC000004A0001004900010048000000480001FB
:100FD00000470001004600000046000100450000F7
:100FE00000450001004400010043000000430001EF
:100FF00000420000004200010041000000410001E9
:1010000000400001003F0000003F0001003E0000E2
:10101000003E0001003D0000003D0001003C0000DA
:10102000003C0000003C0001003B0000003B0001D0
:10103000003A0000003A00010039000000390001C8
:1010400000380000003800000038000100370000C0
:1010500000370001003600000036000000360001B5
:1010600000350000003500000035000100340000AC
:1010700000340000003400010033000000330000A1
:101080000033000100320000003200000032000195
:10109000003100000031000000310001003000008C
:1010A0000030000000300001002F0000002F000081
:1010B000002F0000002F0001002E0000002E000075
:1010C000002E0001002D0000002D0000002D00006A
:1010D000002D0001002C0000002C0000002C00005E
:1010E000002C0001002B0000002B0000002B000052
:1010F000002B0001002A0000002A0000002A000046
:10110000002A000100290000002900000029000039
:10111000002900000029000100280000002800002C
:10112000002800000028000000280001002700001F
:101130000027000000270000002700000027000112
:101140000026000000260000002600000026000007
:1011500000260001002500000025000000250000F9
:1011600000250000002500000025000100240000EB
:1011700000240000002400000024000000240001DE
:1011800000230000002300000023000000230000D3
:1011900000230000002300000023000100220000C3
:1011A00000220000002200000022000000220000B7
:1011B00000220001002100000021000000210000A9
:1011C000002100000021000000210000002100019A
:1011D000002000000020000000200000002000008F
:1011E000002000000020000000200000002000017E
:1011F000001F0000001F0000001F0000001F000073
:10120000001F0000001F0000001F0001001E000062
:10121000001E0000001E0000001E00000045313AC4
:10122000200045303A20005A3A2000593A20005810
:101230003A20004D53312C4D53322050696E730AC1
:10124000001000AD0330016A0150022B0170030A47
:10125000019004F500B005E500D006D800F007CEF7
:10126000001009C500300ABE00500BB700700CB169
:1012700000900DAB00B00EA600D00FA200F0109DA4
:101280000010129900301395005014920070158EC2
:101290000090168B00B0178700D0188400F01981D9
:1012A00000101B7E00301C7B00501D7900701E76E4
:1012B00000901F7300B0207000D0216E00F0226BF0
:1012C00000102469003025660050266300702761F5
:1012D0000090285E00B0295C00D02A5900F02B56FF
:1012E00000102D5400302E5100502F4E0070304B06
:1012F0000090314800B0324500D0334200F0343E17
:101300000010363B00303737005038330070392E2C
:1013100000903A2900B03B2300D03C1B00F03D1167
:1013200000103F0100F03F0000544845524D414C31
:101330002052554E4157415900546865726D616C99
:101340002052756E617761792C2073797374656DA5
:101350002073746F707065642120486561746572D4
:101360005F49443A20004572723A204D4158544535
:101370004D50003A20457874727564657220737719
:10138000697463686564206F66662E204D41585409
:10139000454D50207472696767657265642021004D
:1013A0004572723A204D494E54454D50003A204501
:1013B00078747275646572207377697463686564A4
:1013C000206F66662E204D494E54454D5020747254
:1013D000696767657265642021004572723A204D25
:1013E000415854454D50204245440054656D706548
:1013F00072617475726520686561746564206265E8
:1014000064207377697463686564206F66662E2054
:101410004D415854454D5020747269676765726537
:101420006420212100000000000000000F000000E7
:10143000000000000F000000000000000F0000008E
:10144000000000000F000000000000000F0000007E
:10145000000000000F000000000000000F0000006E
:10146000000000000F000000000000000F0000005E
:10147000000000000F000000000000000F0000004E
:10148000000000000F000000000000000F0000003E
:10149000000000000F000000000000000F0000002E
:1014A000000000000F000000000000000F0000001E
:1014B000000000000F000000000000000F0000000E
:1014C000000000000F0FFFFFFFFFFFFFEF300000E5
:1014D0000000007FFF6000000000001FFF400000D0
:1014E0000000000FFF4000000001800FFF83EFC0ED
:1014F00000018C07FF87FFE000018C03FF86386046
:1015000000018001FF861863E0F98C7CFF86186774
:10151000F1FD8CFE7F86186E318D8CC63F86186C6F
:10152000398D8CC71F86186C19818CC71F86186C63
:1015300019818CC71F86186F9F81CDC71F0618673A
:10154000DF80EFC71F4418619F002FC22F400000AB
:10155000000000002F200000000000004F1FFFFFD0
:10156000FFFFFFFF8F000000000000000F000000E1
:10157000000000000F000000000000000F0000004D
:10158000000000000F000000000000000F0000003D
:10159000000000000F000000000000000F0000002D
:1015A000000000000F000000000000000F0000001D
:1015B000000000000F000000000000000F0000000D
:1015C000000000000F000000000000000F000000FD
:1015D000000000000F000000000000000F000000ED
:1015E000000000000F000000000000000F000000DD
:1015F000000000000F000000000000000F000000CD
:10160000000000000F0000000000000000000000CB
:1016100000000000000000000000000000000000CA
:1016200000000000000000000000000000000000BA
:1016300000000000000000000000000000000000AA
:10164000000000000000000000000000000000009A
:10165000000000000000000000000000000000008A
:1016600000000001050800FF060121023520FFFFF0
:1016700007FF06FF090050221656808080800080F8
:10168000153353A0A0A00257575050F850F85050AF
:101690000257572070A07028702013355580A04045
:1016A000A02002475740A0A040A0A050251353807F
:1016B00080801226564080808080401226568040CE
:1016C000404040800245559060F0609002555520A2
:1016D00020F82020113353604080044151F0113331
:1016E0005340E0400246561010204080801236568B
:1016F00040A0A0A0A04012365640C0404040E002AA
:1017000046566090106080F0024656F020601090BF
:10171000600246562060A0F02020024656F080E08D
:101720001090600246566080E0909060024656F04D
:101730001020204040024656609060909060024623
:1017400056609090701060122555C0C000C0C01146
:1017500036566060006040801236562040808040DF
:1017600020034353F000F012365680402020408082
:1017700012365640A020400040015858304898A8E2
:10178000A8904030024656609090F09090024656E5
:10179000E090E09090E00246566090808090600279
:1017A0004656E090909090E0024656F080E08080AF
:1017B000F0024656F080E0808080024656609080BD
:1017C000B090600246569090F0909090123656E09D
:1017D00040404040E002465670202020A040024693
:1017E0005690A0C0A0A0900246568080808080F0D5
:1017F00002465690F0F090909002465690D0F0B08D
:10180000B090024656609090909060024656E090EC
:1018100090E08080014757609090D0B06010024601
:1018200056E09090E0909002465660904020906084
:10183000123656E04040404040024656909090900C
:10184000906002465690909090606002465690904C
:1018500090F0F0900246569090606090900256563C
:10186000888850202020024656F010204080F01238
:101870003656E080808080E002465680804020100E
:1018800010123656E020202020E016325240A001EF
:101890004151F016225280400244547090907002E0
:1018A00046568080E09090E0123454608080600260
:1018B000465610107090907002445460B0C06002A0
:1018C0004656205040E04040014555609070106001
:1018D0000246568080E09090901236564000C040FC
:1018E00040E01137572000202020A04002465680BB
:1018F0008090E09090123656C040404040E0025444
:1019000054D0A8A8A8024454E09090900244546097
:10191000909060014555E090E080800145557090C1
:10192000701010024454A0D0808012345460C02043
:10193000C00246564040E0405020024454909090EF
:1019400070123454A0A0A04002545488A8A8500299
:1019500044549060609001455590907090600244AE
:1019600054F02040F0024757304020C02040302241
:101970001656808080808080024757C020403040CB
:1019800020C006425250A0FFFFFFFFFFFFFFFFFFF6
:10199000FFFFFFFFFFFFFFFFFFFFFFFFFFFFFFFF57
:1019A000FFFFFFFFFFFFFFFF0900502216568000D8
:1019B000808080800146562070A0A070200246568C
:1019C0002050E04050A00255558870507088025653
:1019D000568850F820F82022175780808000808099
:1019E000800247577080E0907010E0173151A002DC
:1019F000565670A8C8C8A87014355560A06000E09D
:101A000003435350A050123353E02020143151E0CF
:101A100002565670E8D8E8D870173151E0153353A4
:101A200040A04012355540E04000E014355540A03C
:101A30002040E0143555C020C020C01622524080FE
:101A4000014555909090E08002565678E8E8682865
:101A50002824115180112252408014355540C04035
:101A600040E014355540A04000E0034353A050A08F
:101A7000024757808080A060F0200247578080A0F6
:101A8000D010207002475780408060A0F0201236AE
:101A90005640004080A04002475740206090F090A0
:101AA0009002475720406090F09090024757609016
:101AB0006090F0909002475750A06090F090900294
:101AC000475790006090F090900247576090609068
:101AD000F0909002465670A0A0F0A0B00147576069
:101AE0009080809060400247574020F080E080F076
:101AF0000247572040F080E080F00247576090F0A6
:101B000080E080F00247579000F080E080F01237CC
:101B1000578040E0404040E01237572040E04040CE
:101B200040E012375740A0E0404040E0123757A055
:101B300000E0404040E00256567048E848487002D5
:101B4000475750A090D0B0909002475740206090E7
:101B500090906002475720406090909060024757F5
:101B60006090609090906002475750A06090909075
:101B70006002475790006090909060123353A040ED
:101B8000A002465670B0B0D0D0E002475740209037
:101B9000909090600247572040909090906002474C
:101BA000576090909090906002475790009090906E
:101BB00090600257571020885020202002465680FF
:101BC000E09090E0800246566090A0A090A002476E
:101BD000574020007090907002475720400070904E
:101BE00090700247572050007090907002475750F5
:101BF000A000709090700246565000709090700255
:101C0000475760906070909070025454F068B078BC
:101C1000113555608080604002475740200060B019
:101C2000C06002475720400060B0C0600247576064
:101C3000900060B0C060024656500060B0C06012B4
:101C40003757804000C04040E0123757204000C066
:101C50004040E012375740A000C04040E0123656E6
:101C6000A000C04040E0024757A040A01070906024
:101C700002475750A000E090909002475740200044
:101C8000609090600247572040006090906002474B
:101C9000576090006090906002475750A00060909D
:101CA000906002465690006090906012355540005A
:101CB000E0004002445470B0D0E00247574020009A
:101CC000909090700247572040009090907002478B
:101CD00057609000909090700246569000909090BF
:101CE00070014858204000909070906001475780E4
:101CF00080E090E080800147579000909070906065
:101D000000091200FC0A01E803D720FFFD0EFD0BBD
:101D1000FD00000009000E010B0B0904008080800B
:101D20008080808000008080040404090307909074
:101D30009090080A0A090000242424FF2424FF2488
:101D40002424070B0B0901FF107C929050381412C9
:101D5000927C10070A0A09010042A4A4481010242A
:101D60004A4A84070A0A09010060909090606294D0
:101D700088946201040409040780808080030C0CAD
:101D80000903FF2040408080808080804040200305
:101D90000C0C0903FF8040402020202020204040E0
:101DA000800707070901031092543854921007075F
:101DB00007090101101010FE10101002040409049C
:101DC000FEC0C04080070101090104FE02020209B1
:101DD0000400C0C0070A0A09010002040408101028
:101DE00020404080070A0A0901003844828282822A
:101DF00082824438070A0A090100103050901010FE
:101E0000101010FE070A0A09010038448202040873
:101E1000102040FE070A0A090100FE020408180407
:101E200002028478070A0A090100040C142444847D
:101E3000FE040404070A0A090100FE808080F804F9
:101E400002028478070A0A0901003C408080B8C475
:101E500082824438070A0A090100FE0204040808C5
:101E600010101010070A0A0901003844824438444F
:101E700082824438070A0A09010038448282463ABD
:101E800002020478020707090400C0C0000000C075
:101E9000C00209090904FEC0C0000000C0C04080A3
:101EA0000509090902000810204080402010080799
:101EB0000404090102FE0000FE0509090902008070
:101EC0004020100810204080070A0A090100384409
:101ED0008202040810100010070A0A0901003844A1
:101EE0009AAAAAAAAA9C403C070A0A09010010283B
:101EF0002828447C44828282070A0A090100F88467
:101F00008284F884828284F8070A0A0901003C422C
:101F1000808080808080423C070A0A090100F884A2
:101F200082828282828284F8070A0A090100FE8086
:101F30008080F880808080FE070A0A090100FE8008
:101F40008080F88080808080070A0A090100384478
:101F50008280808E82824438070A0A0901008282C8
:101F60008282FE8282828282050A0A090200F820A9
:101F700020202020202020F8070A0A0901003E081E
:101F80000808080808888870070A0A09010082847E
:101F90008890A0D088848282070A0A090100808084
:101FA00080808080808080FE070A0A09010082828A
:101FB000C6AA928282828282070A0A09010082826C
:101FC000C2A2928A86828282070A0A0901007C8262
:101FD000828282828282827C070A0A090100F88456
:101FE000828284F880808080080B0B0901FF3844CE
:101FF00082828282828A443A01070A0A090100F831
:1020000084828284F890888482070A0A0901007C0D
:102010008280807C020202827C070A0A090100FE9B
:10202000101010101010101010070A0A0901008279
:10203000828282828282824438070A0A09010082EF
:10204000828244444428282810070A0A0901008291
:1020500082828292929292AA44070A0A090100821D
:10206000824428101028448282070A0A090100824B
:10207000824428101010101010070A0A090100FEEF
:102080000204081020408080FE040C0C0903FFF0BD
:1020900080808080808080808080F0070A0A09012B
:1020A0000080404020101008040402040C0C0902B7
:1020B000FFF010101010101010101010F007040492
:1020C000090106102844820801010900FFFF0303EB
:1020D0000309030A8040200707070901007C020268
:1020E0007E82867A070A0A090100808080BCC2824B
:1020F0008282C2BC0707070901007C82808080823F
:102100007C070A0A0901000202027A86828282861C
:102110007A0707070901007C8282FE80827C070A19
:102120000A0901001C22222020F820202020070A72
:102130000A0901FD7A84848478807C82827C070A83
:102140000A090100808080BCC28282828282050AE4
:102150000A090200600000E02020202020F8050D80
:102160000D0902FD180000380808080808088888CA
:1021700070070A0A090100808080848890B0C884B2
:1021800082050A0A090200E02020202020202020C9
:10219000F8070707090100EC9292929292820707D2
:1021A00007090100BCC282828282820707070901F7
:1021B000007C82828282827C070A0A0901FDB8C4FF
:1021C000828282C4B8808080070A0A0901FD3A46EB
:1021D000828282463A0202020707070901009C62D6
:1021E00042404040400707070901007C82807C0292
:1021F000827C0709090901002020FC2020202022E0
:102200001C0707070901008282828282867A0707FB
:1022100007090100828244442828100707070901A2
:10222000008282929292AA44070707090100824421
:102230002810284482070A0A0901FD424224242466
:102240001818109060070707090100FE0408102005
:1022500040FE060B0B0902001C20202020C020207D
:1022600020201C010C0C0904FF808080808080806D
:102270008080808080060B0B090100E01010101098
:102280000C10101010E007030309010762928CFF85
:10229000FFFFFFFFFFFFFFFFFFFFFFFFFFFFFFFF4E
:1022A000FFFFFFFFFFFFFFFFFFFFFFFFFFFFFFFF3E
:1022B00000000009000E010B0B09040080800000E3
:1022C000808080808080800608080901000878945A
:1022D00090A0A47840070A0A0901001C222020F8D7
:1022E000202060A25C070606090103827C44447C2E
:1022F00082070A0A090100828244287C107C10109F
:1023000010010B0B0904FF8080808080008080809A
:102310008080040B0B0902FF6090806090909060B9
:1023200010906003020209030BA0A008090909002C
:10233000013C4299A5A1A599423C05070709010363
:10234000609070907800F80708080901011224488D
:102350009090482412060404090102FC04040405B8
:102360000101090204F80809090900013C42B9A564
:10237000BDA9A5423C060101090109FC04040409A8
:10238000030660909060070909090101101010FE12
:1023900010101000FE040606090104609010608011
:1023A000F004060609010460902010906003030306
:1023B00009030A2040800709090901FE82828282FE
:1023C00082C6BA8080070A0A0901007E8A8A8A7A50
:1023D0000A0A0A0A0A020202090404C0C00403032A
:1023E0000902FD20906003060609010440C0404038
:1023F00040E00506060901047088887000F80708A7
:10240000080901019048241212244890070A0A0979
:10241000010040C0404042E60A121A06070A0A09B3
:10242000010040C040404CF2020C101E070A0A098D
:1024300001006090201092660A121A06070A0A0923
:1024400001001000101020408082827C070E0E09CF
:1024500001002010080010282828447C4482828231
:10246000070E0E0901000810200010282828447CBF
:1024700044828282070E0E090100102844001028B1
:102480002828447C44828282070D0D0901003458BB
:102490000010282828447C44828282070D0D0901FF
:1024A0000028280010282828447C44828282070EB5
:1024B0000E0901001028281010282828447C448286
:1024C0008282070A0A0901001E2828284E784888B7
:1024D000888E070D0D0901FD3C4280808080808040
:1024E000423C082418070E0E09010020100800FEC7
:1024F000808080F880808080FE070E0E0901000831
:10250000102000FE808080F880808080FE070E0E04
:1025100009010010284400FE808080F880808080BF
:10252000FE070D0D090100282800FE808080F8803C
:10253000808080FE050E0E09020040201000F82069
:1025400020202020202020F8050E0E090200102057
:102550004000F82020202020202020F8050E0E0921
:10256000020020508800F82020202020202020F881
:10257000050D0D090200505000F8202020202020D9
:102580002020F8070A0A09010078444242F2424238
:10259000424478070D0D0901003458008282C2A21E
:1025A000928A86828282070E0E090100201008009E
:1025B0007C82828282828282827C070E0E090100E6
:1025C000081020007C82828282828282827C070EB6
:1025D0000E090100102844007C828282828282825D
:1025E000827C070D0D0901003458007C82828282B2
:1025F000828282827C070D0D0901002828007C82DE
:10260000828282828282827C0707070901018244DA
:102610002810284482070C0C0901FF027C868A8A54
:102620009292A2A2C27C80070E0E0901002010081F
:102630000082828282828282824438070E0E0901E1
:1026400000081020008282828282828282443807BF
:102650000E0E09010010284400828282828282824A
:10266000824438070D0D09010028280082828282E9
:10267000828282824438070E0E0901000810200071
:1026800082824428101010101010070A0A09010055
:102690008080FC828282FC808080060A0A09010018
:1026A00038444448D04844444458070B0B090100BF
:1026B000201008007C02027E82867A070B0B09013B
:1026C00000081020007C02027E82867A070B0B092C
:1026D0000100102844007C02027E82867A070A0AE2
:1026E0000901003458007C02027E82867A070A0AB9
:1026F0000901002828007C02027E82867A070C0CE1
:1027000009010010282810007C02027E82867A07C8
:1027100007070901006C12127E90926C070A0A09E1
:1027200001FD7C82808080827C104830070B0B0981
:102730000100201008007C8282FE80827C070B0B47
:10274000090100081020007C8282FE80827C070B39
:102750000B090100102844007C8282FE80827C07E5
:102760000A0A0901002828007C8282FE80827C05FA
:102770000C0C0902008040200000E02020202020D6
:10278000F8050C0C0902001020400000E020202079
:102790002020F8050C0C0902002050880000E020E1
:1027A00020202020F8050B0B09020050500000E00B
:1027B0002020202020F8070B0B090100483050088A
:1027C0003C448282824438070A0A090100345800D6
:1027D000BCC28282828282070B0B09010020100892
:1027E000007C82828282827C070B0B090100081028
:1027F00020007C82828282827C070B0B0901001000
:102800002844007C82828282827C070A0A090100B5
:102810003458007C82828282827C070A0A09010085
:102820002828007C82828282827C070909090100B3
:1028300010381000FE001038100709090901FF02C6
:102840007C8A8A92A2A27C80070B0B09010040209F
:1028500010008282828282867A070B0B09010008AF
:102860001020008282828282867A070B0B09010087
:10287000102844008282828282867A070A0A09012D
:10288000002828008282828282867A070E0E090141
:10289000FD040810004242242424181810906007F8
:1028A0000B0B0901FE8080B8C4828282C4B880808C
:1028B000070D0D0901FD2424004242242424181888
:1028C000109060B02000B0200059002D2D3A2D2D21
:1028D000000000000000000000000000007FFFE09A
:1028E0000000000000000000000000007000E00098
:1028F000000000000000000000000061F86000001F
:102900000000000000000000000041F8200000006E
:1029100000000000000000000040F0200000000067
:1029200000000000000000004060200000000000E7
:10293000000000000000005801A07F80000000009F
:102940000000004104005C63A0FFC0000000000024
:1029500000002082005EF7A0FFC000000000000021
:10296000002082005EF7A0FFC00000000000000011
:102970004104005C63A07F80000000000000008232
:1029800008005801A07F8000000000000001041032
:1029900000406020FFC000000000000001041000A3
:1029A00040F020FFC000000000000000820800414D
:1029B000F820FFC00000000000000041040061F8A2
:1029C000603F00000000000000000000007000E018
:1029D0001E0000000000000001FFFF807FFFE00CF0
:1029E0000000000000000001FFFF80000000000068
:1029F000000000000000000000007FFFE000000079
:102A00000000000000000000007000E00000000076
:102A10000000000000000000630C600000000000E7
:102A200000000000000000470E2000000000000031
:102A30000000000000004F0F200000000000000018
:102A400000000000005F0FA0000000000000000078
:102A5000000000005E07A07F800000000000000072
:102A6000410400406020FFC0000000000000002082
:102A7000820040F020FFC000000000000000208223
:102A80000040F020FFC000000000000000410400F2
:102A90004060207F80000000000000008208005E8F
:102AA00007A07F80000000000000010410005F0FFD
:102AB000A0FFC0000000000000010410004F0F2024
:102AC000FFC000000000000000820800470E20FF49
:102AD000C000000000000000410400630C603F00E3
:102AE000000000000000000000007000E01E000078
:102AF000000000000001FFFF807FFFE00C000000ED
:102B00000000000001FFFF800000004D3834205815
:102B10002059205A2045004E6F2053442063617293
:102B200064005072696E742066726F6D20534400A9
:102B300053746F70207072696E7400526573756D96
:102B400065207072696E74005061757365207072D3
:102B5000696E7400436F6E74726F6C0050726570B2
:102B60006172650054756E6500496E666F2073630F
:102B70007265656E00426162797374657070696E2A
:102B800067205800426162797374657070696E677E
:102B9000205900426162797374657070696E6720B4
:102BA0005A004D363030004368616E6765206669B3
:102BB0006C616D656E74004261627973746570203A
:102BC0005A004261627973746570205900426162F3
:102BD0007973746570205800466C6F77203000461A
:102BE0006C6F77203000466C6F7700466C6F770013
:102BF00046616E2073706565640046616E20737077
:102C00006565640042656400426564004E6F7A7ACF
:102C10006C65004E6F7A7A6C650053706565640070
:102C20005370656564004D61696E0050726568653A
:102C3000617420504C4120426564005072656865A3
:102C4000617420504C412031005072657061726592
:102C5000005072656865617420414253204265648A
:102C60000050726568656174204142532031005004
:102C7000726570617265004D3330302053363938DB
:102C80002050323030004D3330302053363539202B
:102C900050323030004D6F76652061786973004D99
:102CA00038300053776974636820706F77657220DD
:102CB0006F6E004D38310053776974636820706F10
:102CC000776572206F666600436F6F6C646F776E16
:102CD000005072656865617420414253005072650E
:102CE0006865617420504C410053657420686F6DB5
:102CF00065206F66667365747300473238004175EE
:102D0000746F20686F6D65004D38340044697361DD
:102D1000626C65207374657070657273004D6169D3
:102D20006E00580059005A004578747275646572D7
:102D3000004578747275646572004D6F7665205A2F
:102D4000004D6F76652059004D6F76652058004D17
:102D50006F76652061786973004D6F766520302E3F
:102D6000316D6D004D6F766520316D6D004D6F7664
:102D7000652031306D6D0050726570617265005272
:102D80006573746F7265206661696C736166650056
:102D90004C434420636F6E74726173740046696CB7
:102DA000616D656E74004D6F74696F6E0054656D72
:102DB0007065726174757265004D61696E00507264
:102DC00065686561742041425320636F6E660050F0
:102DD00072656865617420504C4120636F6E6600B7
:102DE0005049442D43005049442D43005049442D3F
:102DF00044005049442D44005049442D4900504955
:102E0000442D49005049442D50005049442D500054
:102E10002002204661637400200220466163740032
:102E20002002204D6178002002204D6178002002B0
:102E3000204D696E002002204D696E004F666600CD
:102E40004F6E20004F6666004F6E20004175746F14
:102E500074656D700046616E207370656564004630
:102E6000616E20737065656400426564004265644C
:102E7000004E6F7A7A6C65004E6F7A7A6C6500430B
:102E80006F6E74726F6C0042656400426564004E40
:102E90006F7A7A6C65004E6F7A7A6C650046616E67
:102EA0002073706565640046616E207370656564AB
:102EB0000054656D70657261747572650042656479
:102EC00000426564004E6F7A7A6C65004E6F7A7AC4
:102ED0006C650046616E2073706565640046616EC6
:102EE0002073706565640054656D706572617475FA
:102EF0007265004573746570732F6D6D0045737452
:102F00006570732F6D6D005A73746570732F6D6DDE
:102F1000005A73746570732F6D6D0059737465700A
:102F2000732F6D6D005973746570732F6D6D00583C
:102F300073746570732F6D6D005873746570732FA3
:102F40006D6D00412D7265747261637400412D7264
:102F500065747261637400416D6178206500416D34
:102F60006178206500416D6178207A00416D61785B
:102F7000207A00416D6178207900416D6178207977
:102F800000416D6178207800416D617820780056AD
:102F900054726176206D696E005654726176206DB0
:102FA000696E00566D696E00566D696E00566D61F2
:102FB00078206500566D6178206500566D61782037
:102FC0007A00566D6178207A00566D61782079001C
:102FD000566D6178207900566D6178207800566DC5
:102FE000617820780056652D6A65726B0056652DF4
:102FF0006A65726B00567A2D6A65726B00567A2D7F
:103000006A65726B005678792D6A65726B00567826
:10301000792D6A65726B00416363656C004163637F
:10302000656C00436F6E74726F6C0000060900FEE1
:1030300006018902FE20FFFE07FE06FE00000006D4
:1030400000070106060602008080808000800303DE
:1030500003060103A0A0A00507070600FF5050F8D3
:1030600050F850500509090600FE2070A8A07028ED
:10307000A870200608080600FF40A8481020485401
:10308000080507070600FF609090609890680103AC
:10309000030602038080800207070602FF4080804B
:1030A000808080400207070602FF80404040404089
:1030B000800505050600008850F8508805050506BE
:1030C00000002020F820200204040602FEC0404038
:1030D00080050101060002F8020202060200C0C0DB
:1030E0000406060601001010204080800406060633
:1030F000010060909090906003060606010040C0B9
:10310000404040E00406060601006090102040F0B8
:10311000040606060100F020601010E00506060611
:10312000000010305090F810040606060100F080F0
:10313000E01010E00406060601006080E090906058
:10314000040606060100F0101020404004060606A2
:103150000100609060909060040606060100609097
:1031600090701060020505060200C0C000C0C002D9
:1031700007070602FEC0C000C040408005050506E6
:1031800000001860806018050303060001F800F8CD
:10319000050505060000C0300830C0040707060119
:1031A0000060901060400040050606060000709028
:1031B000A8B08070050606060000205088F88888B0
:1031C000050606060000F088F08888F0040606066A
:1031D0000100609080809060040606060100E09087
:1031E000909090E0040606060100F080E08080F0F8
:1031F000040606060100F080E080808004060606D2
:103200000100609080B09060040606060100909076
:10321000F0909090030606060100E040404040E038
:103220000506060600003810101090600406060619
:10323000010090A0C0A090900406060601008080C6
:10324000808080F005060606000088D8A8A8888837
:1032500004060606010090D0B09090900506060680
:103260000000708888888870040606060100E090D7
:1032700090E080800407070601FF609090D0B06066
:1032800010040606060100E09090E0909004060607
:10329000060100609040209060050606060000F8D8
:1032A0002020202020040606060100909090909097
:1032B00060040606060100909090F0606005060626
:1032C0000600008888A8A8D8880506060600008899
:1032D00050202050880506060600008888502020CF
:1032E00020040606060100F010204080F0030606C8
:1032F000060100E080808080E00406060601008070
:103300008040201010030606060100E02020202047
:10331000E00503030600032050880501010600FEB6
:10332000F802020206020480400404040601007050
:103330009090700406060601008080E09090E00402
:103340000404060100708080700406060601001067
:10335000107090907004040406010060B0C0700406
:103360000606060100205040E04040040606060123
:10337000FE6090907010600406060601008080E0F8
:103380009090900306060601004000C04040E00314
:1033900008080601FE200060202020A04004060648
:1033A0000601008080A0C0A090030606060100C0B0
:1033B00040404040E0050404060000D0A8A888046E
:1033C0000404060100E090909004040406010060EB
:1033D0009090600406060601FEE09090E080800474
:1033E00006060601FE709090701010040404060199
:1033F00000A0D0808004040406010070C030E00406
:1034000006060601004040E0405020040404060186
:103410000090909070040404060100909060600594
:10342000040406000088A8A85004040406010090C3
:103430006060900406060601FE9090907090600413
:103440000404060100F02040F003070706010020F5
:103450004040804040200107070602FF80808080B6
:1034600080808003070706010080404020404080A4
:1034700004020206010350A0FFFFFFFFFFFFFFFF52
:10348000FFFFFFFFFFFFFFFFFFFFFFFFFFFFFFFF4C
:10349000FFFFFFFFFFFFFFFFFF0000000600070127
:1034A0000606060200800080808080040606060171
:1034B000FF2070A0A070200507070600FF304840DD
:1034C000F04040F8050505060000A8508850A80502
:1034D00006060600008850F820F8200107070602BB
:1034E000FF808080008080800407070601FF7080D5
:1034F00060906010E0030101060105A006070706C1
:103500000000788494A49484780305050601016082
:10351000A06000E00505050600002850A050280422
:103520000303060100F01010040101060102F00679
:1035300007070600007884B4A4A484780401010677
:103540000105F00403030601026090600507070609
:1035500000FF2020F8202000F803050506010140A7
:10356000A02040E0030505060101C0204020C00264
:10357000020206020440800405050601FF9090B097
:10358000D08005060606000078E8E86828280101D2
:1035900001060202800202020602FE4080030505C7
:1035A00006010140C04040E003050506010140A0BE
:1035B0004000E0050505060000A0502850A00508C1
:1035C000080600FF40C0405070307810050808061B
:1035D00000FF40C04050680810380508080600FF8A
:1035E000C0204030F03078100407070601002000AA
:1035F0002060809060050707060000402020507082
:10360000888805070706000010202050708888056C
:10361000070706000020502050708888050707061D
:1036200000002850205070888805070706000050C9
:1036300000205070888805070706000020502050A1
:1036400070888805060606000078A0F0A0A0B804DF
:1036500008080601FE609080809060204004070703
:103660000601004020F080E080F00407070601001A
:103670002040F080E080F00407070601002050F0B1
:1036800080E080F00407070601005000F080E08031
:10369000F00307070601008040E0404040E00307D8
:1036A000070601002040E0404040E0030707060114
:1036B0000040A0E0404040E0030707060100A000F2
:1036C000E0404040E00506060600007048E8484833
:1036D0007004070706010050A090D0B09090040736
:1036E00007060100402060909090600407070601E3
:1036F0000020406090909060040707060100205071
:10370000609090906004070706010050A0609090C0
:1037100090600407070601005000609090906005DB
:10372000050506000088502050880408080601FF9F
:103730001070B0B0D0D0E080040707060100402030
:1037400090909090600407070601002040909090B0
:10375000906004070706010020509090909060044C
:10376000070706010050009090909060050707063B
:10377000000010208850202020040606060100804A
:10378000E09090E0800406060601006090A0A09002
:10379000A004070706010040200070909070040705
:1037A0000706010020400070909070040707060192
:1037B000002050007090907004070706010050A090
:1037C0000070909070040606060100500070909002
:1037D00070040707060100205020709090700504C7
:1037E0000406000070A8B0780406060601FE70808A
:1037F0008070204004070706010040200060B0C030
:103800007004070706010020400060B0C070040784
:103810000706010020500060B0C0700406060601D3
:1038200000500060B0C07003070706010080400030
:10383000C04040E0030707060100204000C04040B0
:10384000E003070706010040A000C04040E0030677
:1038500006060100A000C04040E004070706010082
:103860003060107090906004070706010050A000BF
:10387000E0909090040707060100402000609090BF
:103880006004070706010020400060909060040774
:1038900007060100205000609090600407070601B1
:1038A0000050A000609090600406060601005000E1
:1038B000609090600505050600002000F8002004D7
:1038C000040406010070B0D0E004070706010040C0
:1038D000200090909070040707060100204000909F
:1038E000909070040707060100205000909090709F
:1038F0000406060601005000909090700409090625
:1039000001FE20400090909070906004080806012D
:10391000FE8080E09090E080800408080601FE5060
:10392000009090907090601000C90210012C01402E
:1039300001220170011801B0010E01F001040150D3
:1039400002FA00B002F0003003E600D003DC009081
:1039500004D2007005C800A006BE000008B400B084
:1039600009AA00D00BA000600E960060118C000028
:1039700015820020197800C01D6E00A0226400B0DE
:10398000275A00902C500000314600E0343C0010D3
:10399000383200903A2800603C1E00A03D140080A0
:1039A0003E0A00203F000046696C2E204469612ECB
:1039B00020310046696C2E204469612E2031004F71
:1039C0006666004F6E20004F6666004F6E20004511
:1039D00020696E206D6D3300436F6E74726F6C00E2
:1039E0004C434420636F6E74726173740043616E64
:1039F0006E6F7420656E746572207375626469728F
:103A00003A20004D3234004D323320257300F92E18
:103A10002E004D61696E00436172642072656D6FA6
:103A2000766564004361726420696E7365727465C3
:103A3000640000002200250028002B002E00310029
:103A4000340002010000050108010B010000200004
:103A50002300260029002C002F0032000001000066
:103A60000301060109010200000A0B02090C0D0EF8
:103A7000080703040100000000000000000000002F
:103A80000000000000000000000000000000000036
:103A900000000012111000000000000000000000F3
:103AA00000000000000000000000000000000021F5
:103AB00000240027002A002D0030003300010100FF
:103AC00000040107010A010102102020080810204B
:103AD000401020408002010201080402010102049A
:103AE0000810204080804020100804020180040259
:103AF00001804020100804020108040201010204B0
:103B000008102040800102040810204080050505AF
:103B100005070508080808020202020A0A08080444
:103B20000404040101010101010101030303030372
:103B3000030303040707070C0C0C0C0C0C0C0C0201
:103B400002020206060606060606060B0B0B0B0B08
:103B50000B0B0B2020506C616E6E657242756666B1
:103B6000657242797465733A20002046726565205B
:103B70004D656D6F72793A200041707220313920A5
:103B80003230323000436F6D70696C65643A2000EA
:103B900028427261636B656E2C204533442054616A
:103BA0007A20636F6E6669672900207C20417574F6
:103BB000686F723A20004170722031392032303201
:103BC000302031363A34323A333800204C61737445
:103BD00020557064617465643A2000312E302E32B5
:103BE000004D61726C696E0020536F66747761726C
:103BF0006520526573657400205761746368646F53
:103C000067205265736574002042726F776E206F73
:103C10007574205265736574002045787465726E02
:103C2000616C20526573657400506F7765725570D2
:103C3000007374617274006572726F7220777269BA
:103C400074696E6720746F2066696C6500656E64C8
:103C500073746F7073206869743A205A00205A3A5E
:103C600000656E6473746F7073206869743A2059CC
:103C70000020593A00656E6473746F707320686930
:103C8000743A20580020583A00656E6473746F705F
:103C900073206869743A2000446F6E652073617602
:103CA000696E672066696C652E006F6B004D323956
:103CB0000057726974696E6720746F2066696C655D
:103CC0003A20002E006F70656E206661696C656435
:103CD0002C2046696C653A20002E006F70656E20BE
:103CE0006661696C65642C2046696C653A20004603
:103CF000696C652073656C65637465640020536945
:103D00007A653A200046696C65206F70656E65645F
:103D10003A20002E006F70656E206661696C6564E4
:103D20002C2046696C653A20004E6F7720667265DC
:103D300073682066696C653A20004E6F7720646F67
:103D4000696E672066696C653A20002220706F7387
:103D5000002220706172656E743A220053554252FF
:103D60004F5554494E452043414C4C207461726775
:103D700065743A2200747279696E6720746F2063EB
:103D8000616C6C207375622D67636F646520666972
:103D90006C6573207769746820746F6F206D616E35
:103DA00079206C6576656C732E204D4158206C65CA
:103DB00076656C2069733A004D3234004D32332001
:103DC0002573006175746F25692E67005344206365
:103DD000617264206F6B006F70656E526F6F74203C
:103DE0006661696C656400766F6C756D652E696ED1
:103DF0006974206661696C6564004572726F723A1D
:103E000000534420696E6974206661696C006563C3
:103E1000686F3A0000060900FE070199032B20FF96
:103E2000FE08FE07FE00000006000001070706026C
:103E30000080808080800080030303060104A0A02E
:103E4000A00507070600005050F850F8505005072D
:103E5000070600002070A0702870200507070600E4
:103E60000048A8502050A89005070706000040A071
:103E7000A040A89068010303060204808080030725
:103E800007060100204080808040200307070601CC
:103E90000080402020204080050505060001885054
:103EA000F850880505050600012020F820200303AE
:103EB000030601FF604080050101060003F80303CB
:103EC000030601FF40E04005070706000008081050
:103ED0002040808005070706000020508888885011
:103EE000200507070600002060A0202020F8050715
:103EF00007060000708808304080F80507070600B4
:103F000000F8081030088870050707060000103018
:103F10005090F81010050707060000F880B0C80898
:103F20008870050707060000304080B0C88870051B
:103F30000707060000F80810102040400507070694
:103F40000000708888708888700507070600007078
:103F50008898680810600307070601FF40E04000EA
:103F600040E0400307070601FF40E040006040805A
:103F700004070706010010204080402010050303BD
:103F8000060002F800F80407070601008040201030
:103F900020408005070706000070881020200020C0
:103FA000050707060000708898A8B080700507070D
:103FB00006000020508888F888880507070600005A
:103FC000F04848704848F0050707060000708880F0
:103FD00080808870050707060000F0484848484878
:103FE000F0050707060000F88080F08080F80507DC
:103FF00007060000F88080F0808080050707060033
:1040000000708880809888700507070600008888FF
:1040100088F8888888030707060100E04040404090
:1040200040E00507070600003810101010906005EA
:1040300007070600008890A0C0A090880507070623
:104040000000808080808080F805070706000088D7
:1040500088D8A88888880507070600008888C8A827
:104060009888880507070600007088888888887007
:10407000050707060000F08888F0808080050808A2
:104080000600FF7088888888A87008050707060062
:1040900000F08888F0A09088050707060000708867
:1040A0008070088870050707060000F8202020208F
:1040B0002020050707060000888888888888700502
:1040C000070706000088888850505020050707061B
:1040D0000000888888A8A8D88805070706000088F7
:1040E00088502050888805070706000088885020DF
:1040F000202020050707060000F80810204080F85F
:10410000030707060100E08080808080E005070744
:104110000600008080402010080803070706010001
:10412000E02020202020E005030306000420508822
:104130000501010600FFF8020202060206804005A2
:104140000505060000700878887805070706000056
:104150008080B0C888C8B00505050600007088805A
:1041600088700507070600000808689888986805A1
:1041700005050600007088F8807005070706000036
:10418000304840F04040400507070600FE78888828
:10419000780888700507070600008080B0C8888806
:1041A000880307070601004000C0404040E00409C2
:1041B000090601FE100030101010909060050707EE
:1041C00006000080808890E09088030707060100C1
:1041D000C04040404040E0050505060000D0A8A8CA
:1041E000A888050505060000B0C88888880505056B
:1041F00006000070888888700507070600FEB0C8B2
:1042000088C8B080800507070600FE68988898680F
:104210000808050505060000B0C880808005050572
:1042200006000070807008F0050707060000404097
:10423000F0404048300505050600008888889868E9
:104240000505050600008888505020050505060074
:10425000008888A8A8500505050600008850205051
:10426000880507070600FE88889868088870050595
:1042700005060000F8102040F8040707060100308A
:104280004020C02040300107070602008080808067
:10429000808080040707060100C02040304020C015
:1042A00005030306000448A8900000000100000078
:1042B00000000100000000000100000000000100FB
:1042C00000000000010000000000010000000000EC
:1042D00001000000000001000000000001000000DB
:1042E00000000100000000000100000000000100CB
:1042F00000000000010000000000010000000000BC
:1043000001000000000001000000000001000000AA
:10431000000001000000000001000000000001009A
:10432000000000000100000000000100000000008B
:10433000010000000000010000000000010000007A
:10434000000001000000000001000000000001006A
:10435000000000000100000000000100000000005B
:10436000010000000000010000000000010000004A
:104370000000060000010707060200800080808020
:1043800080800507070600FF2078A0A0A078200500
:104390000707060000304840E04048B00505050624
:1043A000000088705070880508080600FF88885053
:1043B00020F820202001070706020080808000806E
:1043C00080800508080600FF7080E090483808707B
:1043D000030101060107A00507070600007088A871
:1043E000C8A888700406060601017090B05000F05D
:1043F0000605050600002448904824040202060130
:1044000002F010040101060103F005070706000091
:104410007088E8C8C88870050101060007F8030322
:104420000306010440A0400506060600002020F80F
:104430002020F804050506010360902040F00405E3
:1044400005060103E0106010E002020206020640C9
:10445000800506060600FF888888C8B08005070723
:1044600006000078E8E86828282801010106020310
:10447000800202020602FE40800305050601034099
:10448000C04040E00406060601016090906000F024
:104490000605050600009048244890060909060014
:1044A000FF40C04040E40C143C040609090600FF2C
:1044B00040C04040E81404081C0509090600FFC07C
:1044C000204020C8182878080507070600002000AB
:1044D0002020408870050808060000402070888869
:1044E000F888880508080600001020708888F88879
:1044F000880508080600002050708888F88888051C
:10450000080806000048B0708888F8888805080800
:104510000600005000708888F888880508080600A2
:10452000002050708888F888880607070600003C3D
:1045300050909CF0909C0509090600FE70888080D0
:10454000808870204005080806000040F88080F050
:104550008080F805080806000010F88080F0808050
:10456000F805080806000020F88080F08080F80533
:10457000080806000050F88080F08080F8030808E2
:104580000601008040E040404040E003080806018A
:10459000002040E040404040E003080806010040A1
:1045A000A0E040404040E0030808060100A000E011
:1045B00040404040E0050707060000F04848E84852
:1045C00048F0050808060000285088C8A898888880
:1045D0000508080600004020708888888870050853
:1045E0000806000010207088888888700508080672
:1045F0000000205070888888887005080806000030
:1046000028507088888888700508080600005000C7
:10461000708888888870050505060000885020503D
:1046200088050707060000709898A8C8C870050894
:1046300008060000402088888888887005080806D9
:104640000000102088888888887005080806000007
:1046500020500088888888700508080600005000EF
:1046600088888888887005080806000010208888D7
:104670005020202005070706000080F088F0808089
:1046800080050707060000708890A09088B0050894
:1046900008060000402000700878887805080806A1
:1046A00000001020007008788878050808060000CF
:1046B0002050007008788878050808060000285007
:1046C0000070087888780507070600005000700819
:1046D000788878050808060000205020700878883F
:1046E0007806050506000078147C907C050707060F
:1046F00000FE708880887020400508080600004091
:1047000020007088F880700508080600001020005E
:104710007088F88070050808060000205000708836
:10472000F8807005070706000050007088F8807058
:10473000030808060100804000C0404040E0030834
:1047400008060100408000C0404040E00308080621
:10475000010040A000C0404040E0060A0A0600FEFA
:10476000A4A800FC8480808084FC060A0A0600FE5F
:10477000549400FC8404040484FC0508080600002A
:10478000285000B0C8888888050808060000402026
:10479000007088888870040A0A0602FE3040809003
:1047A000909090909090040A0A0600FEC02010900D
:1047B000909090909090060707060001448C8C849E
:1047C00080403C06070706000188C4C4840408F042
:1047D0000505050600012000F80020050808060070
:1047E0000040F0C88888987810050808060000E0A6
:1047F000F88888888888F80505050600012030F8C3
:1048000030200508080600002070F820202020E055
:104810000509090600FF2070A8A8B888885020055F
:1048200009090600FFE080C0B0A8A83028280509C3
:10483000090600FFF8A88888888888A8F8050A0A69
:104840000600FE205050505088A8A8887000BC0078
:10485000B00011241FBECFEFD1E2DEBFCDBF00E01C
:104860000CBF14E0A0E0B2E0E4EFFBE502E00BBF18
:1048700002C007900D92A43EB107D9F724E1A4EE3F
:10488000B4E001C01D92AD3EB207E1F714E2C8E208
:10489000D4E200E006C021970109802FFE010F94A9
:1048A000FA2CC732D10780E00807A9F70F94681CDB
:1048B0000D94E92D0C9400002FB7F8949091050108
:1048C0009B7F909305012FBF87FD8FC0A3982FB7C3
:1048D000F894909105019460909305012FBF2FB734
:1048E000F894909105019B7F909305012FBF86FD61
:1048F0008AC0A3982FB7F894909105019460909383
:1049000005012FBF2FB7F894909105019B7F9093DD
:1049100005012FBF85FD75C0A3982FB7F89490911E
:1049200005019460909305012FBF2FB7F8949091E3
:1049300005019B7F909305012FBF84FD60C0A39864
:104940002FB7F894909105019460909305012FBFC3
:104950002FB7F894909105019B7F909305012FBF8D
:1049600083FD4BC0A3982FB7F894909105019460F4
:10497000909305012FBF2FB7F894909105019B7F6D
:10498000909305012FBF82FD36C0A3982FB7F894EE
:10499000909105019460909305012FBF2FB7F89473
:1049A000909105019B7F909305012FBF81FD21C050
:1049B000A3982FB7F8949091050194609093050106
:1049C0002FBF2FB7F894909105019B7F909305011D
:1049D0002FBF80FD0CC0A3989FB7F894809105016C
:1049E0008460809305019FBF0895A39A70CFA39A16
:1049F000F3CFA39ADECFA39AC9CFA39AB4CFA39A39
:104A00009FCFA39A8ACFA39A75CF10926C0B109266
:104A10006B0B10926A0B1092690B10923F0B9FB7B1
:104A2000F894E2E0F1E080818F7B80839FBF109259
:104A30006A0B1092690B10923D0B759808952091A6
:104A4000760230917702409178025091790260E0CD
:104A500070E08FE793E40F94382A6093020C709310
:104A6000030C8093040C9093050C209172023091FA
:104A70007302409174025091750260E070E08FE71C
:104A800093E40F94382A6093FA0B7093FB0B809396
:104A9000FC0B9093FD0B0895813051F120F0823092
:104AA00009F448C0089517988091090182702FB7C2
:104AB0006623A1F0F89490910B01926090930B0102
:104AC0002FBF409A40989FB7882369F0F89480914F
:104AD0000B01826080930B019FBF0895F894909121
:104AE0000B019D7FEBCFF89480910B018D7FF2CF6E
:104AF00016988091090181702FB7611111C0F89447
:104B000090910B01916090930B012FBF419A4198B6
:104B10009FB7882351F0F89480910B018160DACF20
:104B2000F89490910B019E7FEECFF89480910B0149
:104B30008E7FD0CF15988091090184702FB766239E
:104B400089F0F89490910B01946090930B012FBF22
:104B5000429A42989FB7882351F0F89480910B01B4
:104B60008460B8CFF89490910B019B7FEECFF894BE
:104B700080910B018B7FAECF8F929F92AF92BF92AD
:104B8000EF92FF920F931F93CF93DF93CDE7DBE07C
:104B900085EFE82E8FE0F82E0CE615E0699179910B
:104BA00089919991F70181909190A190B1907F01A5
:104BB0000F941426A50194010F9454220F94A52A52
:104BC000F80161937193819391938F01FBE0CD384C
:104BD000DF0721F7DF91CF911F910F91FF90EF90A9
:104BE000BF90AF909F908F900895CF92DF92EF92F9
:104BF000FF92CF93DF93EC01C0904705D09048051A
:104C0000E0904905F0904A05A701960168817981F5
:104C10008A819B810F94102687FF04C0C882D982A5
:104C2000EA82FB82C0904B05D0904C05E0904D0588
:104C3000F0904E05A70196016C817D818E819F8148
:104C40000F94102687FF04C0CC82DD82EE82FF82A3
:104C500020E030E0A90160914F05709150058091EE
:104C60005105909152050F945C296B017C01AC01B8
:104C70009B01688579858A859B850F94102687FF1F
:104C800004C0C886D986EA86FB86C0900602D0900A
:104C90000702E0900802F0900902A70196016881DE
:104CA00079818A819B810F94872B181624F4C882FE
:104CB000D982EA82FB82C0900A02D0900B02E09077
:104CC0000C02F0900D02A70196016C817D818E810E
:104CD0009F810F94872B181624F4CC82DD82EE82FC
:104CE000FF82C0900E02D0900F02E0901002F09070
:104CF0001102A7019601688579858A859B850F94A5
:104D0000872B181624F4C886D986EA86FB86DF919D
:104D1000CF91FF90EF90DF90CF900895089590E0AD
:104D200080E00895DF92EF92FF920F931F93CF934D
:104D3000DF93EC01D62E1CAD0BAD7C0184E0E80EB8
:104D4000F11CE98DFA8DC7011995412F480F2D2DC2
:104D5000602FC7010E94C6FA9BAD890F8BAF81E01F
:104D600090E0DF91CF911F910F91FF90EF90DF9036
:104D70000895CF92DF92EF92FF920F931F93CF93FC
:104D8000DF936B01E9014A3009F4C2C6453109F0ED
:104D9000ABC6DB011296ED91FC9192810680F78102
:104DA000E02DA49AC8E2D0E02197F1F7092F0795EA
:104DB00000270795192F1295110F110F107CD92F6D
:104DC000D295DD0FD07EC92FC295C07FBF017E5F17
:104DD00048E250E02FB7F894809105018B7F8093D3
:104DE00005012FBFA39A2FB7F89480910501846025
:104DF000809305012FBF2FB7F894809105018B7F19
:104E0000809305012FBFA39A2FB7F89480910501D5
:104E10008460809305012FBF2FB7F894809105011E
:104E20008B7F809305012FBFA39A2FB7F8948091B1
:104E300005018460809305012FBF2FB7F8948091FE
:104E400005018B7F809305012FBFA39A2FB7F8949C
:104E5000809105018460809305012FBF2FB7F894DE
:104E6000809105018B7F809305012FBFA39A2FB7F7
:104E7000F894809105018460809305012FBF2FB7BE
:104E8000F894809105018B7F809305012FBFA39833
:104E90002FB7F894809105018460809305012FBF9E
:104EA0002FB7F894809105018B7F809305012FBF68
:104EB000A3982FB7F8948091050184608093050131
:104EC0002FBF2FB7F894809105018B7F8093050148
:104ED0002FBFA3982FB7F894809105018460809329
:104EE00005012FBFDA011197F1F7903208F023C4C2
:104EF0002FB7F894809105018B7F809305012FBF18
:104F0000A39A2FB7F89480910501846080930501DE
:104F10002FBF2FB7F894809105018B7F80930501F7
:104F20002FBFA3982FB7F8948091050184608093D8
:104F300005012FBF2FB7F894809105018B7F8093D7
:104F400005012FBFA3982FB7F894809105018460C5
:104F5000809305012FBF2FB7F894809105018B7FB7
:104F6000809305012FBF94FDA7C5A3982FB7F89490
:104F7000809105018460809305012FBF2FB7F894BD
:104F8000809105018B7F809305012FBFA3982FB7D8
:104F9000F894809105018460809305012FBF2FB79D
:104FA000F894809105018B7F809305012FBFA39812
:104FB0002FB7F894809105018460809305012FBF7D
:104FC0002FB7F894809105018B7F809305012FBF47
:104FD000A3982FB7F8948091050184608093050110
:104FE0002FBF2FB7F894809105018B7F8093050127
:104FF0002FBFA3982FB7F894809105018460809308
:1050000005012FBF2FB7F894809105018B7F809306
:1050100005012FBFC7FD66C5A3982FB7F8948091EF
:1050200005018460809305012FBF2FB7F89480910C
:1050300005018B7F809305012FBFD7FD51C5A39834
:105040002FB7F894809105018460809305012FBFEC
:105050002FB7F894809105018B7F809305012FBFB6
:1050600017FD3CC5A3982FB7F89480910501846083
:10507000809305012FBF2FB7F894809105018B7F96
:10508000809305012FBF07FD27C5A3982FB7F8947C
:10509000809105018460809305012FBF2FB7F8949C
:1050A000809105018B7F809305012FBFA3982FB7B7
:1050B000F894809105018460809305012FBF2FB77C
:1050C000F894809105018B7F809305012FBFA398F1
:1050D0002FB7F894809105018460809305012FBF5C
:1050E0002FB7F894809105018B7F809305012FBF26
:1050F000A3982FB7F89480910501846080930501EF
:105100002FBF2FB7F894809105018B7F8093050105
:105110002FBFA3982FB7F8948091050184608093E6
:1051200005012FBFDA011197F1F72FB7F89480919D
:1051300005018B7F809305012FBFA39A2FB7F894A9
:10514000809105018460809305012FBF2FB7F894EB
:10515000809105018B7F809305012FBFA3982FB706
:10516000F894809105018460809305012FBF2FB7CB
:10517000F894809105018B7F809305012FBFA39840
:105180002FB7F894809105018460809305012FBFAB
:105190002FB7F894809105018B7F809305012FBF75
:1051A000A3982FB7F894809105018460809305013E
:1051B0002FBF2FB7F894809105018B7F8093050155
:1051C0002FBFA3982FB7F894809105018460809336
:1051D00005012FBF2FB7F894809105018B7F809335
:1051E00005012FBFA3982FB7F89480910501846023
:1051F000809305012FBF2FB7F894809105018B7F15
:10520000809305012FBFA3982FB7F89480910501D3
:105210008460809305012FBF2FB7F894809105011A
:105220008B7F809305012FBFA3982FB7F8948091AF
:1052300005018460809305012FBF2FB7F8948091FA
:1052400005018B7F809305012FBFA3982FB7F8949A
:10525000809105018460809305012FBF2FB7F894DA
:10526000809105018B7F809305012FBFA3982FB7F5
:10527000F894809105018460809305012FBF2FB7BA
:10528000F894809105018B7F809305012FBFA3982F
:105290002FB7F894809105018460809305012FBF9A
:1052A0002FB7F894809105018B7F809305012FBF64
:1052B000A3982FB7F894809105018460809305012D
:1052C0002FBF2FB7F894809105018B7F8093050144
:1052D0002FBFA3982FB7F894809105018460809325
:1052E00005012FBF2FB7F894809105018B7F809324
:1052F00005012FBFA3982FB7F89480910501846012
:10530000809305012FBF2FB7F894809105018B7F03
:10531000809305012FBFA3982FB7F89480910501C2
:105320008460809305012FBF2FB7F8948091050109
:105330008B7F809305012FBFA3982FB7F89480919E
:1053400005018460809305012FBFDA011197F1F701
:105350002FB7F894809105018B7F809305012FBFB3
:10536000A39A2FB7F894809105018460809305017A
:105370002FBF2FB7F894809105018B7F8093050193
:105380002FBFA39A2FB7F894809105018460809372
:1053900005012FBF2FB7F894809105018B7F809373
:1053A00005012FBFA39A2FB7F8948091050184605F
:1053B000809305012FBF2FB7F894809105018B7F53
:1053C000809305012FBFA39A2FB7F8948091050110
:1053D0008460809305012FBF2FB7F8948091050159
:1053E0008B7F809305012FBFA39A2FB7F8948091EC
:1053F00005018460809305012FBF2FB7F894809139
:1054000005018B7F809305012FBFA3982FB7F894D8
:10541000809105018460809305012FBF2FB7F89418
:10542000809105018B7F809305012FBFA39A2FB731
:10543000F894809105018460809305012FBF2FB7F8
:10544000F894809105018B7F809305012FBFA3986D
:105450002FB7F894809105018460809305012FBFD8
:10546000DA011197F1F79F01205F3F4F28C1A39800
:10547000EFB6F894F09005016894F2F8F092050107
:10548000EFBEEFB6F894F0900501E894F2F8F092D0
:105490000501EFBE86FD2EC1A398EFB6F894F090FB
:1054A00005016894F2F8F0920501EFBEEFB6F894AA
:1054B000F0900501E894F2F8F0920501EFBE85FD49
:1054C00017C1A398EFB6F894F09005016894F2F82C
:1054D000F0920501EFBEEFB6F894F0900501E89464
:1054E000F2F8F0920501EFBE84FD00C1A398FFB66B
:1054F000F89480910501846080930501FFBEFFB69A
:10550000F894809105018B7F80930501FFBEA398DD
:10551000FFB6F89480910501846080930501FFBE79
:10552000FFB6F894809105018B7F80930501FFBE43
:10553000A398FFB6F89480910501846080930501DB
:10554000FFBEFFB6F894809105018B7F8093050123
:10555000FFBEA398FFB6F894809105018460809304
:105560000501FFBEFFB6F894809105018B7F809303
:105570000501FFBEA398FFB6F894809105018460F1
:1055800080930501FFBE8081EFB6F894F09005018D
:10559000E894F2F8F0920501EFBE83FDA5C0A39850
:1055A000EFB6F894F09005016894F2F8F0920501D6
:1055B000EFBEEFB6F894F0900501E894F2F8F0929F
:1055C0000501EFBE82FD8EC0A398EFB6F894F0906F
:1055D00005016894F2F8F0920501EFBEEFB6F89479
:1055E000F0900501E894F2F8F0920501EFBE81FD1C
:1055F00077C0A398EFB6F894F09005016894F2F89C
:10560000F0920501EFBEEFB6F894F0900501E89432
:10561000F2F8F0920501EFBE80FD60C0A398FFB6DE
:10562000F89480910501846080930501FFBEFFB668
:10563000F894809105018B7F80930501FFBEA398AC
:10564000FFB6F89480910501846080930501FFBE48
:10565000FFB6F894809105018B7F80930501FFBE12
:10566000A398FFB6F89480910501846080930501AA
:10567000FFBEFFB6F894809105018B7F80930501F2
:10568000FFBEA398FFB6F8948091050184608093D3
:105690000501FFBEFFB6F894809105018B7F8093D2
:1056A0000501FFBEA398FFB6F894809105018460C0
:1056B00080930501FFBE3196E217F307E9F0808180
:1056C000807FEFB6F894F0900501E894F2F8F0923C
:1056D0000501EFBE87FFCBCEA39ACACEA39A9FCF78
:1056E000A39A88CFA39A71CFA39A5ACFA39AFFCE39
:1056F000A39AE8CEA39AD1CEDA011197F1F79F5F72
:105700000058105CD05EC05F6E177F0709F062CB57
:10571000A498F601C281D381CE010E94A0F7811125
:105720000C940035DF91CF911F910F91FF90EF9076
:10573000DF90CF90089580EE890F807780683FB723
:10574000F894209105012B7F209305013FBFA39A78
:105750003FB7F894209105012460209305013FBFD5
:105760003FB7F894209105012B7F209305013FBF9F
:1057700086FDB0C1A3983FB7F8942091050124603D
:10578000209305013FBF3FB7F894209105012B7F7F
:10579000209305013FBF85FD9BC1A3983FB7F894B7
:1057A000209105012460209305013FBF3FB7F89485
:1057B000209105012B7F209305013FBF84FD86C109
:1057C000A3982FB7F8948091050184608093050118
:1057D0002FBF2FB7F894809105018B7F809305012F
:1057E0002FBFA3982FB7F894809105018460809310
:1057F00005012FBF2FB7F894809105018B7F80930F
:1058000005012FBFA3982FB7F894809105018460FC
:10581000809305012FBF2FB7F894809105018B7FEE
:10582000809305012FBFA3982FB7F89480910501AD
:105830008460809305012FBF2FB7F89480910501F4
:105840008B7F809305012FBFA3982FB7F894809189
:1058500005018460809305012FBFA92FA052BB0BC7
:105860009D0122953295307F3227207F3227FFB667
:10587000F894809105018B7F80930501FFBE27FD81
:1058800023C1A398FFB6F8948091050184608093AA
:105890000501FFBEFFB6F894809105018B7F8093D0
:1058A0000501FFBE26FD0EC1A398FFB6F8948091B6
:1058B0000501846080930501FFBEFFB6F8948091D6
:1058C00005018B7F80930501FFBE25FDF9C0A398DC
:1058D0003FB7F894809105018460809305013FBF34
:1058E0003FB7F894809105018B7F809305013FBFFE
:1058F00024FDE4C0A3982FB7F8948091050184603B
:10590000809305012FBF2FB7F894809105018B7FFD
:10591000809305012FBFA3982FB7F89480910501BC
:105920008460809305012FBF2FB7F8948091050103
:105930008B7F809305012FBFA3982FB7F894809198
:1059400005018460809305012FBF2FB7F8948091E3
:1059500005018B7F809305012FBFA3982FB7F89483
:10596000809105018460809305012FBF2FB7F894C3
:10597000809105018B7F809305012FBFA3982FB7DE
:10598000F894809105018460809305012FBFDA01AE
:105990001197F1F72FB7F894809105018B7F8093D1
:1059A00005012FBFA39A2FB7F89480910501846059
:1059B000809305012FBF2FB7F894809105018B7F4D
:1059C000809305012FBFA3982FB7F894809105010C
:1059D0008460809305012FBF2FB7F8948091050153
:1059E0008B7F809305012FBFA3982FB7F8948091E8
:1059F00005018460809305012FBF2FB7F894809133
:105A000005018B7F809305012FBFA3982FB7F894D2
:105A1000809105018460809305012FBF2FB7F89412
:105A2000809105018B7F809305012FBFA3982FB72D
:105A3000F894809105018460809305012FBF2FB7F2
:105A4000F894809105018B7F809305012FBFA39867
:105A50002FB7F894809105018460809305012FBFD2
:105A60002FB7F894809105018B7F809305012FBF9C
:105A7000A3982FB7F8948091050184608093050165
:105A80002FBF2FB7F894809105018B7F809305017C
:105A90002FBFA3982FB7F89480910501846080935D
:105AA00005012FBF2FB7F894809105018B7F80935C
:105AB00005012FBFA39ACACBA39A58CAA39A1BCF9A
:105AC000A39A06CFA39AF1CEA39ADCCEA39A79CE5D
:105AD000A39A64CEA39A4FCEA39AD8CAA39AC3CA54
